:1000000080311A280000203085000130840000086B
:10001000031918280130F800F701F70B0D28F80B29
:100020000C284A30F700F70B13281628800B0A28F3
:1000300080316D2823008C018D01220092019101F5
:10004000940193010130650021001E109E101E11C5
:1000500023008C0000308D0021001E169E161E13FA
:100060009E171D14F8001D08833978049D00003088
:10007000F800063820009C00FF309B0021008C1106
:1000800022008C110C302600930025001E129E12B7
:1000900021009D141130F7009D1C5028F70B4C28AF
:1000A0001C08FA001B082000A1007A08A200A20C7C
:1000B000A10CA20CA10CA20C21082600910020008A
:1000C000A20C220C3039F70026001308CF39770430
:1000D000930014302000A100032825004828630065
:020000040001F9
:04000E00C13FFF1ED1
:00000001FF
;PIC16F1827
;CRC=41C5  CREATED="30-mar.-21 13:41"
